{
  "transactions": [
    {
      "hash": "0x2c1b980a4396d40dbaf0a613ec9bb199f3ce61a63e08f1ae2a6151e337cc37d4",
      "transactionType": "CREATE",
      "contractName": "TokenFactory",
      "contractAddress": "0x6db1cfaba28776fa8763f1d05b0abab8c0b8dd5f",
      "function": null,
      "arguments": null,
      "transaction": {
        "from": "0xf06fb1015dffc3059d12a933dd7012f5aaae11ba",
        "gas": "0x1d2de8",
        "value": "0x0",
        "input": "0x608080604052346075573315605f5760008054336001600160a01b0319821681178355916001600160a01b03909116907f8be0079c531659141344cd1fd0a4f28419497f9722a3daafe3b4186f6b6457e09080a3611937908161007b8239f35b631e4fbdf760e01b600052600060045260246000fd5b600080fdfe6080604052600436101561001257600080fd5b60003560e01c8063450efe21146104ca5780635fa7b5841461048b578063715018a6146104325780638da5cb5b14610409578063ac9650d814610208578063e8a0aed3146100fb5763f2fde38b1461006957600080fd5b346100f65760203660031901126100f6576004356001600160a01b038116908190036100f65761009761097e565b80156100e057600080546001600160a01b03198116831782556001600160a01b0316907f8be0079c531659141344cd1fd0a4f28419497f9722a3daafe3b4186f6b6457e09080a3005b631e4fbdf760e01b600052600060045260246000fd5b600080fd5b346100f65760603660031901126100f65760043567ffffffffffffffff81116100f65761012c903690600401610893565b60243567ffffffffffffffff81116100f65761014c903690600401610893565b6044359160ff83168093036100f65760405192610d828085019285841067ffffffffffffffff8511176101f257859461019e6101ac92606094610b808939338752608060208801526080870190610814565b908582036040870152610814565b92015203906000f080156101e65760209033600052600182526101dd60406000209160018060a01b03168092610b20565b50604051908152f35b6040513d6000823e3d90fd5b634e487b7160e01b600052604160045260246000fd5b346100f65760203660031901126100f65760043567ffffffffffffffff81116100f657366023820112156100f657806004013567ffffffffffffffff81116100f6573660248260051b840101116100f65760405160206102688183610855565b60008252808201601f198201368237610280846108da565b9261028e6040519485610855565b848452601f1961029d866108da565b018360005b8281106103f957505050368690036042190160005b8681101561039b57600060248260051b8a0101358381121561039757890160248101359067ffffffffffffffff8211610393576044019080360382136103935791808061036e9361032b61033b600198978d8c8e60405195848795858701998a37850191848301938a8552519384916107f1565b010103601f198101835282610855565b5190305af43d1561038a573d61035081610877565b9061035e6040519283610855565b815280928a3d92013e5b30610abf565b6103788289610954565b526103838188610954565b50016102b7565b60609150610368565b8280fd5b5080fd5b604080518681528751818801819052600092600582901b83018101918a8a01918a9085015b8287106103cd5785850386f35b9091929382806103e9600193603f198a82030186528851610814565b96019201960195929190926103c0565b60608282890101520184906102a2565b346100f65760003660031901126100f6576000546040516001600160a01b039091168152602090f35b346100f65760003660031901126100f65761044b61097e565b600080546001600160a01b0319811682556001600160a01b03167f8be0079c531659141344cd1fd0a4f28419497f9722a3daafe3b4186f6b6457e08280a3005b346100f65760203660031901126100f6576004356001600160a01b038116908190036100f6576104c89033600052600160205260406000206109bf565b005b346100f65760203660031901126100f6576004356001600160a01b038116908190036100f65780600052600160205260406000205490610509826108da565b916105176040519384610855565b808352610526601f19916108da565b0160005b8181106107b757505060005b81600052600160205260406000205481101561070c578160005260016020526105638160406000206109a7565b90546040516306fdde0360e01b81529160031b1c6001600160a01b0316600082600481845afa9182156101e6576000926106f1575b506040516395d89b4160e01b815290600082600481845afa9182156101e6576000926106ce575b506040516318160ddd60e01b815290602082600481845afa9182156101e65760009261069b575b5060405163313ce56760e01b815292602084600481855afa9384156101e657600094610658575b509160019594939160ff936040519561062587610839565b86526020860152604085015260608401521660808201526106468286610954565b526106518185610954565b5001610536565b6020949194813d8211610693575b8161067360209383610855565b8101031261039757519060ff8216820361069057509260ff61060d565b80fd5b3d9150610666565b90916020823d82116106c6575b816106b560209383610855565b8101031261069057505190876105e6565b3d91506106a8565b6106ea91923d8091833e6106e28183610855565b8101906108f2565b90866105bf565b61070591923d8091833e6106e28183610855565b9085610598565b826040518091602082016020835281518091526040830190602060408260051b8601019301916000905b82821061074557505050500390f35b919360019193955060208091603f19898203018552875190608080610786610776855160a0865260a0860190610814565b8686015185820388870152610814565b93878060a01b0360408201511660408501526060810151606085015201519101529601920192018594939192610736565b6020906040516107c681610839565b606081526060838201526000604082015260006060820152600060808201528282870101520161052a565b60005b8381106108045750506000910152565b81810151838201526020016107f4565b9060209161082d815180928185528580860191016107f1565b601f01601f1916010190565b60a0810190811067ffffffffffffffff8211176101f257604052565b90601f8019910116810190811067ffffffffffffffff8211176101f257604052565b67ffffffffffffffff81116101f257601f01601f191660200190565b81601f820112156100f6578035906108aa82610877565b926108b86040519485610855565b828452602083830101116100f657816000926020809301838601378301015290565b67ffffffffffffffff81116101f25760051b60200190565b6020818303126100f65780519067ffffffffffffffff82116100f6570181601f820112156100f657805161092581610877565b926109336040519485610855565b818452602082840101116100f65761095191602080850191016107f1565b90565b80518210156109685760209160051b010190565b634e487b7160e01b600052603260045260246000fd5b6000546001600160a01b0316330361099257565b63118cdaa760e01b6000523360045260246000fd5b80548210156109685760005260206000200190600090565b9060018201918160005282602052604060002054801515600014610ab6576000198101818111610aa0578254600019810191908211610aa057818103610a52575b50505080548015610a3c576000190190610a1a82826109a7565b8154906000199060031b1b191690555560005260205260006040812055600190565b634e487b7160e01b600052603160045260246000fd5b610a89610a62610a7293866109a7565b90549060031b1c928392866109a7565b819391549060031b91821b91600019901b19161790565b905560005283602052604060002055388080610a00565b634e487b7160e01b600052601160045260246000fd5b50505050600090565b90610ae55750805115610ad457805190602001fd5b63d6bda27560e01b60005260046000fd5b81511580610b17575b610af6575090565b639996b31560e01b60009081526001600160a01b0391909116600452602490fd5b50803b15610aee565b6001810190826000528160205260406000205415600014610b77578054680100000000000000008110156101f257610b62610a728260018794018555846109a7565b90555491600052602052604060002055600190565b50505060009056fe60a0604052346103bf57610d8280380380610019816103c4565b9283398101906080818303126103bf5780516001600160a01b038116908190036103bf5760208201516001600160401b0381116103bf578361005c9184016103e9565b60408301519093906001600160401b0381116103bf576060916100809185016103e9565b92015160ff811681036103bf5783516001600160401b0381116102c857600354600181811c911680156103b5575b60208210146102a857601f8111610350575b50602094601f82116001146102e9579481929394956000926102de575b50508160011b916000199060031b1c1916176003555b82516001600160401b0381116102c857600454600181811c911680156102be575b60208210146102a857601f8111610243575b506020601f82116001146101dc57819293946000926101d1575b50508160011b916000199060031b1c1916176004555b81156101bb57600580546001600160a01b03198116841790915560405192906001600160a01b03167f8be0079c531659141344cd1fd0a4f28419497f9722a3daafe3b4186f6b6457e0600080a360805261092d90816104558239608051816105380152f35b631e4fbdf760e01b600052600060045260246000fd5b015190503880610140565b601f198216906004600052806000209160005b81811061022b57509583600195969710610212575b505050811b01600455610156565b015160001960f88460031b161c19169055388080610204565b9192602060018192868b0151815501940192016101ef565b60046000527f8a35acfbc15ff81a39ae7d344fd709f28e8600b4aa8c65c6b64bfe7fe36bd19b601f830160051c8101916020841061029e575b601f0160051c01905b8181106102925750610126565b60008155600101610285565b909150819061027c565b634e487b7160e01b600052602260045260246000fd5b90607f1690610114565b634e487b7160e01b600052604160045260246000fd5b0151905038806100dd565b601f198216956003600052806000209160005b8881106103385750836001959697981061031f575b505050811b016003556100f3565b015160001960f88460031b161c19169055388080610311565b919260206001819286850151815501940192016102fc565b60036000527fc2575a0e9e593c00f959f8c92f12db2869c3395a3b0502d05e2516446f71f85b601f830160051c810191602084106103ab575b601f0160051c01905b81811061039f57506100c0565b60008155600101610392565b9091508190610389565b90607f16906100ae565b600080fd5b6040519190601f01601f191682016001600160401b038111838210176102c857604052565b81601f820112156103bf578051906001600160401b0382116102c857610418601f8301601f19166020016103c4565b92828452602083830101116103bf5760005b82811061043f57505060206000918301015290565b8060208092840101518282870101520161042a56fe608080604052600436101561001357600080fd5b60003560e01c90816306fdde03146106ed57508063095ea7b31461066757806318160ddd1461064957806323b872dd1461055c578063313ce5671461051e57806340c10f191461046a57806370a0823114610430578063715018a6146103d35780638da5cb5b146103aa57806395d89b41146102895780639dc29fac146101ca578063a9059cbb14610199578063dd62ed3e146101485763f2fde38b146100b957600080fd5b34610143576020366003190112610143576100d2610809565b6100da6108ce565b6001600160a01b0316801561012d57600580546001600160a01b0319811683179091556001600160a01b03167f8be0079c531659141344cd1fd0a4f28419497f9722a3daafe3b4186f6b6457e0600080a3005b631e4fbdf760e01b600052600060045260246000fd5b600080fd5b3461014357604036600319011261014357610161610809565b61016961081f565b6001600160a01b039182166000908152600160209081526040808320949093168252928352819020549051908152f35b34610143576040366003190112610143576101bf6101b5610809565b6024359033610835565b602060405160018152f35b34610143576040366003190112610143576101e3610809565b602435906101ef6108ce565b6001600160a01b03169081156102735760009082825281602052604082205481811061025b5760208285937fddf252ad1be2c89b69c2b068fc378daa952ba7f163c4a11628f55a4df523b3ef93869787528684520360408620558060025403600255604051908152a380f35b60649363391434e360e21b8452600452602452604452fd5b634b637e8f60e11b600052600060045260246000fd5b346101435760003660031901126101435760405160006004548060011c906001811680156103a0575b60208310811461038c578285529081156103705750600114610319575b50819003601f01601f191681019067ffffffffffffffff821181831017610303576102ff829182604052826107c0565b0390f35b634e487b7160e01b600052604160045260246000fd5b905060046000527f8a35acfbc15ff81a39ae7d344fd709f28e8600b4aa8c65c6b64bfe7fe36bd19b6000905b82821061035a575060209150820101826102cf565b6001816020925483858801015201910190610345565b90506020925060ff191682840152151560051b820101826102cf565b634e487b7160e01b84526022600452602484fd5b91607f16916102b2565b34610143576000366003190112610143576005546040516001600160a01b039091168152602090f35b34610143576000366003190112610143576103ec6108ce565b600580546001600160a01b031981169091556000906001600160a01b03167f8be0079c531659141344cd1fd0a4f28419497f9722a3daafe3b4186f6b6457e08280a3005b34610143576020366003190112610143576001600160a01b03610451610809565b1660005260006020526020604060002054604051908152f35b3461014357604036600319011261014357610483610809565b6024359061048f6108ce565b6001600160a01b0316801561050857600254918083018093116104f2576020926002557fddf252ad1be2c89b69c2b068fc378daa952ba7f163c4a11628f55a4df523b3ef600093849284845283825260408420818154019055604051908152a380f35b634e487b7160e01b600052601160045260246000fd5b63ec442f0560e01b600052600060045260246000fd5b3461014357600036600319011261014357602060405160ff7f0000000000000000000000000000000000000000000000000000000000000000168152f35b3461014357606036600319011261014357610575610809565b61057d61081f565b6001600160a01b03821660008181526001602090815260408083203384529091529020549092604435929160001981106105bd575b506101bf9350610835565b83811061062c578415610616573315610600576101bf946000526001602052604060002060018060a01b03331660005260205283604060002091039055846105b2565b634a1406b160e11b600052600060045260246000fd5b63e602df0560e01b600052600060045260246000fd5b8390637dc7a0d960e11b6000523360045260245260445260646000fd5b34610143576000366003190112610143576020600254604051908152f35b3461014357604036600319011261014357610680610809565b602435903315610616576001600160a01b031690811561060057336000526001602052604060002082600052602052806040600020556040519081527f8c5be1e5ebec7d5bd14f71427d1e84f3dd0314c0f7b2291e5b200ac8c7c3b92560203392a3602060405160018152f35b346101435760003660031901126101435760006003548060011c906001811680156107b6575b60208310811461038c57828552908115610370575060011461075f5750819003601f01601f191681019067ffffffffffffffff821181831017610303576102ff829182604052826107c0565b905060036000527fc2575a0e9e593c00f959f8c92f12db2869c3395a3b0502d05e2516446f71f85b6000905b8282106107a0575060209150820101826102cf565b600181602092548385880101520191019061078b565b91607f1691610713565b91909160208152825180602083015260005b8181106107f3575060409293506000838284010152601f8019910116010190565b80602080928701015160408286010152016107d2565b600435906001600160a01b038216820361014357565b602435906001600160a01b038216820361014357565b6001600160a01b0316908115610273576001600160a01b03169182156105085760008281528060205260408120548281106108b45791604082827fddf252ad1be2c89b69c2b068fc378daa952ba7f163c4a11628f55a4df523b3ef958760209652828652038282205586815280845220818154019055604051908152a3565b916064928463391434e360e21b8452600452602452604452fd5b6005546001600160a01b031633036108e257565b63118cdaa760e01b6000523360045260246000fdfea2646970667358221220c6caf6d79c8de3bdf91354bc3966de9e906a8bfd3b674f014578ea0ba17c6e8364736f6c634300081b0033a2646970667358221220e04aaa0e6ef8b8662d37cd205278720e6bffb897564b90a94aafbea234129e2b64736f6c634300081b0033",
        "nonce": "0x3a",
        "chainId": "0x515"
      },
      "additionalContracts": [],
      "isFixedGasLimit": false
    },
    {
      "hash": "0x6667bc5a751c0e78eda1c7f245fb3ac3b2d539b2074d6729ca2621d099555bcc",
      "transactionType": "CALL",
      "contractName": "TokenFactory",
      "contractAddress": "0x6db1cfaba28776fa8763f1d05b0abab8c0b8dd5f",
      "function": "createToken(string,string,uint8)",
      "arguments": [
        "aUSDC",
        "aUSDC",
        "6"
      ],
      "transaction": {
        "from": "0xf06fb1015dffc3059d12a933dd7012f5aaae11ba",
        "to": "0x6db1cfaba28776fa8763f1d05b0abab8c0b8dd5f",
        "gas": "0xdfcc2",
        "value": "0x0",
        "input": "0xe8a0aed3000000000000000000000000000000000000000000000000000000000000006000000000000000000000000000000000000000000000000000000000000000a000000000000000000000000000000000000000000000000000000000000000060000000000000000000000000000000000000000000000000000000000000005615553444300000000000000000000000000000000000000000000000000000000000000000000000000000000000000000000000000000000000000000000056155534443000000000000000000000000000000000000000000000000000000",
        "nonce": "0x3b",
        "chainId": "0x515"
      },
      "additionalContracts": [],
      "isFixedGasLimit": false
    },
    {
      "hash": "0xc303cd5193428d8d3997138fed9fa5f3966e2030726dcad61d84b12f3c6a143f",
      "transactionType": "CALL",
      "contractName": "TokenFactory",
      "contractAddress": "0x6db1cfaba28776fa8763f1d05b0abab8c0b8dd5f",
      "function": "createToken(string,string,uint8)",
      "arguments": [
        "aUSDT",
        "aUSDT",
        "18"
      ],
      "transaction": {
        "from": "0xf06fb1015dffc3059d12a933dd7012f5aaae11ba",
        "to": "0x6db1cfaba28776fa8763f1d05b0abab8c0b8dd5f",
        "gas": "0xda07e",
        "value": "0x0",
        "input": "0xe8a0aed3000000000000000000000000000000000000000000000000000000000000006000000000000000000000000000000000000000000000000000000000000000a000000000000000000000000000000000000000000000000000000000000000120000000000000000000000000000000000000000000000000000000000000005615553445400000000000000000000000000000000000000000000000000000000000000000000000000000000000000000000000000000000000000000000056155534454000000000000000000000000000000000000000000000000000000",
        "nonce": "0x3c",
        "chainId": "0x515"
      },
      "additionalContracts": [],
      "isFixedGasLimit": false
    },
    {
      "hash": "0x832ffadac2a59105b1740f11502582676a4f2147bcd088d9a2a41813b74be909",
      "transactionType": "CALL",
      "contractName": "TokenFactory",
      "contractAddress": "0x6db1cfaba28776fa8763f1d05b0abab8c0b8dd5f",
      "function": "createToken(string,string,uint8)",
      "arguments": [
        "aBTC",
        "aBTC",
        "8"
      ],
      "transaction": {
        "from": "0xf06fb1015dffc3059d12a933dd7012f5aaae11ba",
        "to": "0x6db1cfaba28776fa8763f1d05b0abab8c0b8dd5f",
        "gas": "0xda05e",
        "value": "0x0",
        "input": "0xe8a0aed3000000000000000000000000000000000000000000000000000000000000006000000000000000000000000000000000000000000000000000000000000000a000000000000000000000000000000000000000000000000000000000000000080000000000000000000000000000000000000000000000000000000000000004614254430000000000000000000000000000000000000000000000000000000000000000000000000000000000000000000000000000000000000000000000046142544300000000000000000000000000000000000000000000000000000000",
        "nonce": "0x3d",
        "chainId": "0x515"
      },
      "additionalContracts": [],
      "isFixedGasLimit": false
    },
    {
      "hash": "0x5c31178b95e035f615bca9a4ca33a4e2a3ad648bf406f6c6aed0ceef0661d0f5",
      "transactionType": "CALL",
      "contractName": "Token",
      "contractAddress": "0xcba6ffdd15b82d041468941ef51c9dc182ca4d3d",
      "function": "mint(address,uint256)",
      "arguments": [
        "0xF06Fb1015DFfC3059d12A933dD7012F5aAae11Ba",
        "200000000000"
      ],
      "transaction": {
        "from": "0xf06fb1015dffc3059d12a933dd7012f5aaae11ba",
        "to": "0xcba6ffdd15b82d041468941ef51c9dc182ca4d3d",
        "gas": "0x19154",
        "value": "0x0",
        "input": "0x40c10f19000000000000000000000000f06fb1015dffc3059d12a933dd7012f5aaae11ba0000000000000000000000000000000000000000000000000000002e90edd000",
        "nonce": "0x3e",
        "chainId": "0x515"
      },
      "additionalContracts": [],
      "isFixedGasLimit": false
    },
    {
      "hash": "0xbe8b4669ddf8e6c62e9d4ec860bb1892057cdeb796fa8d11bf6eacf3621f4d1c",
      "transactionType": "CALL",
      "contractName": "Token",
      "contractAddress": "0x396f3a721647066374fee0cb70eca4f2ebe74b1e",
      "function": "mint(address,uint256)",
      "arguments": [
        "0xF06Fb1015DFfC3059d12A933dD7012F5aAae11Ba",
        "200000000000000000000000"
      ],
      "transaction": {
        "from": "0xf06fb1015dffc3059d12a933dd7012f5aaae11ba",
        "to": "0x396f3a721647066374fee0cb70eca4f2ebe74b1e",
        "gas": "0x17b39",
        "value": "0x0",
        "input": "0x40c10f19000000000000000000000000f06fb1015dffc3059d12a933dd7012f5aaae11ba000000000000000000000000000000000000000000002a5a058fc295ed000000",
        "nonce": "0x3f",
        "chainId": "0x515"
      },
      "additionalContracts": [],
      "isFixedGasLimit": false
    },
    {
      "hash": "0x6e0219c866de6b2ec9c8771b171b8a1b87df1736cc1d66af00d72d0062e19490",
      "transactionType": "CALL",
      "contractName": "Token",
      "contractAddress": "0x72487b2f2d7a83f3a7862ca8e7a27e0c3ad8ab4a",
      "function": "mint(address,uint256)",
      "arguments": [
        "0xF06Fb1015DFfC3059d12A933dD7012F5aAae11Ba",
        "200000000"
      ],
      "transaction": {
        "from": "0xf06fb1015dffc3059d12a933dd7012f5aaae11ba",
        "to": "0x72487b2f2d7a83f3a7862ca8e7a27e0c3ad8ab4a",
        "gas": "0x17af7",
        "value": "0x0",
        "input": "0x40c10f19000000000000000000000000f06fb1015dffc3059d12a933dd7012f5aaae11ba000000000000000000000000000000000000000000000000000000000bebc200",
        "nonce": "0x40",
        "chainId": "0x515"
      },
      "additionalContracts": [],
      "isFixedGasLimit": false
    }
  ],
  "receipts": [
    {
      "status": "0x1",
      "cumulativeGasUsed": "0x1896b5",
      "logs": [
        {
          "address": "0x6db1cfaba28776fa8763f1d05b0abab8c0b8dd5f",
          "topics": [
            "0x8be0079c531659141344cd1fd0a4f28419497f9722a3daafe3b4186f6b6457e0",
            "0x0000000000000000000000000000000000000000000000000000000000000000",
            "0x000000000000000000000000f06fb1015dffc3059d12a933dd7012f5aaae11ba"
          ],
          "data": "0x",
          "blockHash": "0x31b3ff609239795c7e5ca46b32e53a30a097ce6f84651bf12160217d06ebd18d",
          "blockNumber": "0xef51b1",
          "transactionHash": "0x2c1b980a4396d40dbaf0a613ec9bb199f3ce61a63e08f1ae2a6151e337cc37d4",
          "transactionIndex": "0x2",
          "logIndex": "0x2",
          "removed": false
        }
      ],
      "logsBloom": "0x00000000000000000000000000000000000000000000000000800000000000000000000000000000000000000000000000000000000000000000000000000000000000000000000000000200000000000001000000000000000000000000400000000400020000000000000000000800000000000000000000000000000000400000000000000000010000000000000000000000000000000000000000000000000000000000000000000000000000000000000000000000000000000000000000000000000000200002000000000000000000000000000000000000000020000000000000000000000000000000000000000000000000000000000000000000",
      "type": "0x2",
      "transactionHash": "0x2c1b980a4396d40dbaf0a613ec9bb199f3ce61a63e08f1ae2a6151e337cc37d4",
      "transactionIndex": "0x2",
      "blockHash": "0x31b3ff609239795c7e5ca46b32e53a30a097ce6f84651bf12160217d06ebd18d",
      "blockNumber": "0xef51b1",
      "gasUsed": "0x1673b1",
      "effectiveGasPrice": "0xf6a4e",
      "from": "0xf06fb1015dffc3059d12a933dd7012f5aaae11ba",
      "to": null,
      "contractAddress": "0x6db1cfaba28776fa8763f1d05b0abab8c0b8dd5f",
      "l1BaseFeeScalar": "0x7d0",
      "l1BlobBaseFee": "0x1",
      "l1BlobBaseFeeScalar": "0xdbba0",
      "l1Fee": "0x18d6aa2a",
      "l1GasPrice": "0x36550c",
      "l1GasUsed": "0xe494"
    },
    {
      "status": "0x1",
      "cumulativeGasUsed": "0xaccac",
      "logs": [
        {
          "address": "0xcba6ffdd15b82d041468941ef51c9dc182ca4d3d",
          "topics": [
            "0x8be0079c531659141344cd1fd0a4f28419497f9722a3daafe3b4186f6b6457e0",
            "0x0000000000000000000000000000000000000000000000000000000000000000",
            "0x000000000000000000000000f06fb1015dffc3059d12a933dd7012f5aaae11ba"
          ],
          "data": "0x",
          "blockHash": "0x018eb4205d814987a9046c1e79302bcb77f29287b018afab8f7147fcfa73aad4",
          "blockNumber": "0xef51b9",
          "transactionHash": "0x6667bc5a751c0e78eda1c7f245fb3ac3b2d539b2074d6729ca2621d099555bcc",
          "transactionIndex": "0x1",
          "logIndex": "0x0",
          "removed": false
        }
      ],
      "logsBloom": "0x00000000000000000000000000000000000000000000000000800000000000000000000000000000000000000000000000000000000000000000000000000000000000000000000000000200000000000001000000000000000000000000000000000000020000000000000000000800000000000000000000000000000000400000000000000000000000000000000000000000040000000000000000000000000000000000000000000000000000000000000800000000000000000000000000000000000000200002000000000000000000000000000000000000000020000000000000400000000000000000000000000000000000000000000000000000",
      "type": "0x2",
      "transactionHash": "0x6667bc5a751c0e78eda1c7f245fb3ac3b2d539b2074d6729ca2621d099555bcc",
      "transactionIndex": "0x1",
      "blockHash": "0x018eb4205d814987a9046c1e79302bcb77f29287b018afab8f7147fcfa73aad4",
      "blockNumber": "0xef51b9",
      "gasUsed": "0xa2152",
      "effectiveGasPrice": "0xf6a4e",
      "from": "0xf06fb1015dffc3059d12a933dd7012f5aaae11ba",
      "to": "0x6db1cfaba28776fa8763f1d05b0abab8c0b8dd5f",
      "contractAddress": null,
      "l1BaseFeeScalar": "0x7d0",
      "l1BlobBaseFee": "0x1",
      "l1BlobBaseFeeScalar": "0xdbba0",
      "l1Fee": "0xadd95d",
      "l1GasPrice": "0x3653d1",
      "l1GasUsed": "0x640"
    },
    {
      "status": "0x1",
      "cumulativeGasUsed": "0x198ffc",
      "logs": [
        {
          "address": "0x396f3a721647066374fee0cb70eca4f2ebe74b1e",
          "topics": [
            "0x8be0079c531659141344cd1fd0a4f28419497f9722a3daafe3b4186f6b6457e0",
            "0x0000000000000000000000000000000000000000000000000000000000000000",
            "0x000000000000000000000000f06fb1015dffc3059d12a933dd7012f5aaae11ba"
          ],
          "data": "0x",
          "blockHash": "0x2a9a2eaf82ea404f693287b6f08c46ab9cb3896ebabf32720a1498c437fd2e67",
          "blockNumber": "0xef51c5",
          "transactionHash": "0xc303cd5193428d8d3997138fed9fa5f3966e2030726dcad61d84b12f3c6a143f",
          "transactionIndex": "0x2",
          "logIndex": "0x1",
          "removed": false
        }
      ],
      "logsBloom": "0x00000000000000000000000000000000000000000000000000800000000000000000000000080000000000000000000000000000000000000000000000000000000000000000000000000200000000000001000000000000000000000000000000000000020000000000000000000800000000000000000000000000000000400000000000000000000000000000000000000000000000000000000000000000000000000000000000000000000000000000000000000000000000000000040000000000000000200002000000000000000000000000000000004000000020000000000000000000000000000000000000000000000000000000000000000000",
      "type": "0x2",
      "transactionHash": "0xc303cd5193428d8d3997138fed9fa5f3966e2030726dcad61d84b12f3c6a143f",
      "transactionIndex": "0x2",
      "blockHash": "0x2a9a2eaf82ea404f693287b6f08c46ab9cb3896ebabf32720a1498c437fd2e67",
      "blockNumber": "0xef51c5",
      "gasUsed": "0x9de86",
      "effectiveGasPrice": "0xf6a4e",
      "from": "0xf06fb1015dffc3059d12a933dd7012f5aaae11ba",
      "to": "0x6db1cfaba28776fa8763f1d05b0abab8c0b8dd5f",
      "contractAddress": null,
      "l1BaseFeeScalar": "0x7d0",
      "l1BlobBaseFee": "0x1",
      "l1BlobBaseFeeScalar": "0xdbba0",
      "l1Fee": "0xa55e7a",
      "l1GasPrice": "0x33ad6a",
      "l1GasUsed": "0x640"
    },
    {
      "status": "0x1",
      "cumulativeGasUsed": "0xa89c8",
      "logs": [
        {
          "address": "0x72487b2f2d7a83f3a7862ca8e7a27e0c3ad8ab4a",
          "topics": [
            "0x8be0079c531659141344cd1fd0a4f28419497f9722a3daafe3b4186f6b6457e0",
            "0x0000000000000000000000000000000000000000000000000000000000000000",
            "0x000000000000000000000000f06fb1015dffc3059d12a933dd7012f5aaae11ba"
          ],
          "data": "0x",
          "blockHash": "0xdd6ebe4eec7f75f4a9a4cd92918942fd801438fe909a73e408502d9c5c712dba",
          "blockNumber": "0xef51ce",
          "transactionHash": "0x832ffadac2a59105b1740f11502582676a4f2147bcd088d9a2a41813b74be909",
          "transactionIndex": "0x1",
          "logIndex": "0x0",
          "removed": false
        }
      ],
      "logsBloom": "0x00000000000000000000000000000000000000000000000000800000000000000000000000000000000000000000000000000000000000000000000000000000000000000000000000000200000000000001000000000000000000000000000000000000020000000000000000000800000000000000000000000000000000400000000000000000000000000000000000000000000000000000000000000000000000000000000000000000000000000800000000000000000000000000020000000000000000200002000000000000000000000000000000100000000020000000000000000000000000000000000000000000000000000000000000000000",
      "type": "0x2",
      "transactionHash": "0x832ffadac2a59105b1740f11502582676a4f2147bcd088d9a2a41813b74be909",
      "transactionIndex": "0x1",
      "blockHash": "0xdd6ebe4eec7f75f4a9a4cd92918942fd801438fe909a73e408502d9c5c712dba",
      "blockNumber": "0xef51ce",
      "gasUsed": "0x9de6e",
      "effectiveGasPrice": "0xf6a4e",
      "from": "0xf06fb1015dffc3059d12a933dd7012f5aaae11ba",
      "to": "0x6db1cfaba28776fa8763f1d05b0abab8c0b8dd5f",
      "contractAddress": null,
      "l1BaseFeeScalar": "0x7d0",
      "l1BlobBaseFee": "0x1",
      "l1BlobBaseFeeScalar": "0xdbba0",
      "l1Fee": "0x9ff920",
      "l1GasPrice": "0x31fdbe",
      "l1GasUsed": "0x640"
    },
    {
      "status": "0x1",
      "cumulativeGasUsed": "0x1de88",
      "logs": [
        {
          "address": "0xcba6ffdd15b82d041468941ef51c9dc182ca4d3d",
          "topics": [
            "0xddf252ad1be2c89b69c2b068fc378daa952ba7f163c4a11628f55a4df523b3ef",
            "0x0000000000000000000000000000000000000000000000000000000000000000",
            "0x000000000000000000000000f06fb1015dffc3059d12a933dd7012f5aaae11ba"
          ],
          "data": "0x0000000000000000000000000000000000000000000000000000002e90edd000",
          "blockHash": "0xcf8fb3a1d4fc4d2d48fbab765007a40e4dd8a9c38d7950833aa98f01ba54033a",
          "blockNumber": "0xef51d7",
          "transactionHash": "0x5c31178b95e035f615bca9a4ca33a4e2a3ad648bf406f6c6aed0ceef0661d0f5",
          "transactionIndex": "0x1",
          "logIndex": "0x0",
          "removed": false
        }
      ],
      "logsBloom": "0x00000000000000000000000000000000000000000000000000000000000000000000000000000000000000000000000000000000000000000000000000000000000000000000000000000208000000000000000000000000000000000000000000000000020000000000000000000800000000000000000000000010000000000000000000000000000000000000000000000000040000000000000000000000000000000000000000000000000000000000000800000000000000000000000000000002000000200002000000000000000000000000000000000000000020000000000000400000000000000000000000000000000000000000000000000000",
      "type": "0x2",
      "transactionHash": "0x5c31178b95e035f615bca9a4ca33a4e2a3ad648bf406f6c6aed0ceef0661d0f5",
      "transactionIndex": "0x1",
      "blockHash": "0xcf8fb3a1d4fc4d2d48fbab765007a40e4dd8a9c38d7950833aa98f01ba54033a",
      "blockNumber": "0xef51d7",
      "gasUsed": "0x1126a",
      "effectiveGasPrice": "0xf6a4e",
      "from": "0xf06fb1015dffc3059d12a933dd7012f5aaae11ba",
      "to": "0xcba6ffdd15b82d041468941ef51c9dc182ca4d3d",
      "contractAddress": null,
      "l1BaseFeeScalar": "0x7d0",
      "l1BlobBaseFee": "0x1",
      "l1BlobBaseFeeScalar": "0xdbba0",
      "l1Fee": "0x9bda53",
      "l1GasPrice": "0x30b41e",
      "l1GasUsed": "0x640"
    },
    {
      "status": "0x1",
      "cumulativeGasUsed": "0x335aa",
      "logs": [
        {
          "address": "0x396f3a721647066374fee0cb70eca4f2ebe74b1e",
          "topics": [
            "0xddf252ad1be2c89b69c2b068fc378daa952ba7f163c4a11628f55a4df523b3ef",
            "0x0000000000000000000000000000000000000000000000000000000000000000",
            "0x000000000000000000000000f06fb1015dffc3059d12a933dd7012f5aaae11ba"
          ],
          "data": "0x000000000000000000000000000000000000000000002a5a058fc295ed000000",
          "blockHash": "0x262b46ba494d67a05d2a895b389c9c02ace93424af06c124f19521b82997bc34",
          "blockNumber": "0xef51e0",
          "transactionHash": "0xbe8b4669ddf8e6c62e9d4ec860bb1892057cdeb796fa8d11bf6eacf3621f4d1c",
          "transactionIndex": "0x2",
          "logIndex": "0x2",
          "removed": false
        }
      ],
      "logsBloom": "0x00000000000000000000000000000000000000000000000000000000000000000000000000080000000000000000000000000000000000000000000000000000000000000000000000000208000000000000000000000000000000000000000000000000020000000000000000000800000000000000000000000010000000000000000000000000000000000000000000000000000000000000000000000000000000000000000000000000000000000000000000000000000000000000040000000002000000200002000000000000000000000000000000004000000020000000000000000000000000000000000000000000000000000000000000000000",
      "type": "0x2",
      "transactionHash": "0xbe8b4669ddf8e6c62e9d4ec860bb1892057cdeb796fa8d11bf6eacf3621f4d1c",
      "transactionIndex": "0x2",
      "blockHash": "0x262b46ba494d67a05d2a895b389c9c02ace93424af06c124f19521b82997bc34",
      "blockNumber": "0xef51e0",
      "gasUsed": "0x1128e",
      "effectiveGasPrice": "0xf6a4e",
      "from": "0xf06fb1015dffc3059d12a933dd7012f5aaae11ba",
      "to": "0x396f3a721647066374fee0cb70eca4f2ebe74b1e",
      "contractAddress": null,
      "l1BaseFeeScalar": "0x7d0",
      "l1BlobBaseFee": "0x1",
      "l1BlobBaseFeeScalar": "0xdbba0",
      "l1Fee": "0x9bda53",
      "l1GasPrice": "0x30b41e",
      "l1GasUsed": "0x640"
    },
    {
      "status": "0x1",
      "cumulativeGasUsed": "0x1bda0",
      "logs": [
        {
          "address": "0x72487b2f2d7a83f3a7862ca8e7a27e0c3ad8ab4a",
          "topics": [
            "0xddf252ad1be2c89b69c2b068fc378daa952ba7f163c4a11628f55a4df523b3ef",
            "0x0000000000000000000000000000000000000000000000000000000000000000",
            "0x000000000000000000000000f06fb1015dffc3059d12a933dd7012f5aaae11ba"
          ],
          "data": "0x000000000000000000000000000000000000000000000000000000000bebc200",
          "blockHash": "0x83fdf90924f2ceda7dc62dfea72a17ae910bd494c79778cdc77618d0c9cf4ea2",
          "blockNumber": "0xef51e8",
          "transactionHash": "0x6e0219c866de6b2ec9c8771b171b8a1b87df1736cc1d66af00d72d0062e19490",
          "transactionIndex": "0x1",
          "logIndex": "0x0",
          "removed": false
        }
      ],
      "logsBloom": "0x00000000000000000000000000000000000000000000000000000000000000000000000000000000000000000000000000000000000000000000000000000000000000000000000000000208000000000000000000000000000000000000000000000000020000000000000000000800000000000000000000000010000000000000000000000000000000000000000000000000000000000000000000000000000000000000000000000000000000000800000000000000000000000000020000000002000000200002000000000000000000000000000000100000000020000000000000000000000000000000000000000000000000000000000000000000",
      "type": "0x2",
      "transactionHash": "0x6e0219c866de6b2ec9c8771b171b8a1b87df1736cc1d66af00d72d0062e19490",
      "transactionIndex": "0x1",
      "blockHash": "0x83fdf90924f2ceda7dc62dfea72a17ae910bd494c79778cdc77618d0c9cf4ea2",
      "blockNumber": "0xef51e8",
      "gasUsed": "0x1125e",
      "effectiveGasPrice": "0xf6a4e",
      "from": "0xf06fb1015dffc3059d12a933dd7012f5aaae11ba",
      "to": "0x72487b2f2d7a83f3a7862ca8e7a27e0c3ad8ab4a",
      "contractAddress": null,
      "l1BaseFeeScalar": "0x7d0",
      "l1BlobBaseFee": "0x1",
      "l1BlobBaseFeeScalar": "0xdbba0",
      "l1Fee": "0x9e41f6",
      "l1GasPrice": "0x317481",
      "l1GasUsed": "0x640"
    }
  ],
  "libraries": [],
  "pending": [],
  "returns": {},
  "timestamp": 1742536506,
  "chain": 1301,
  "commit": "44712ec"
}